:0400000002006B325D
:01000B0032C2
:0100130032BA
:01001B0032B2
:0100230032AA
:01002B0032A2
:01003300329A
:01003B003292
:01004300328A
:01004B003282
:01005300327A
:01005B003272
:030063000201791E
:0300C400020066D1
:030066000200C7CE
:2000C70075900675E61075A8801200FB908024E4F0A3F0A3F0908027F07582E212065E90C5
:1400E7008024E4F0A3F0A3F0908027F07582E112065E80FE74
:040FD3000078AA00F8
:2000FB00C20175A04090C7D6E04408F07E507FC3000000001EBEFF011FEE4F70F390C7D6AC
:20011B00E054F7F01201263001FD2290C7AE7411F090C7ACE4F090C7AD7402F075B8109098
:20013B00C7A9741FF090C7AAF090C7DE7402F090C7DFF090C7E0E4F090C7E1F090C7817480
:20015B0020F090C78223F090C7887410F090C78923F090C78A23F090C7C774FFF022C021CA
:20017B00C0E0C0F0C082C083C007C006C005C004C003C002C001C000C0D075D00890C7A897
:20019B00E0FF600ABF10028016BF244D802275D0001203B275D00890C7AB7401F0803A75D3
:2001BB00D00012012675D00890C7AB7410F0802990C640E0FF9080347441F074C6A3F0E4A0
:2001DB00A3F08F8275D0001207E475D00890C7AA7402F090C7C774FFF0D0D0D000D001D0D8
:2001FB0002D003D004D005D006D007D083D082D0F0D0E0D02132AFF0AE83E582908008F042
:20021B00EEA3F0EFA3F0908008E0FDA3E0FEA3E0FF8D828E838FF0120F4CAE82AF8390804A
:20023B0062E4F09080637440F0E4A3F090C70275F000C007C006120E95D006D0078E048F11
:20025B0005EC2CFC0C0C90C700ECF090C7017403F0908008E0FBA3E0FCA3E0FD79007A007B
:20027B00C3E99EEA64808FF063F08095F05037C006C0078900E82824022400F510E434C799
:20029B00F511E92BF8EA3CFE8D0788828E838FF0120F64F8851082851183F009B900010A75
:2002BB00D007D00680BA90C700E090C7B5F022908074E0FEA3E0FF8E828F83A3A3E0A3E038
:2002DB00FC7D00BC0105BD00028014BC0205BD00028055BC0306BD000302038C0203B074DF
:2002FB00062EF582E43FF583E0FCA3E0FD9080657484F0740FA3F07480A3F0908068ECF0F3
:20031B00EDA3F090C70075F000120EBD908074E0FCA3E0FD74062CF582E43DF583E0FCA394
:20033B00E090C7B5ECF0D32274062EF582E43FF583E0FEA3E0FF9080657496F0740FA3F046
:20035B007480A3F0908068EEF0EFA3F090C70075F000120EBD908074E0FEA3E0FF74062EFE
:20037B00F582E43FF583E0FEA3E090C7B5EEF0D32290C7EAE075F002A42476F582748035AA
:20039B00F0F583E0FEA3E0FF7D808E828F838DF0120211D322C322C202908074E0FEA3E036
:2003BB00FF8E828F83A3E0FD6052BD0502801EBD0602800DBD08028030BD09028013020443
:2003DB00521202CA4003020452D202806AD20280668E828F83A3A3E0FCA3E0FD4C7004C279
:2003FB00018002D201D202804EA201E433FD90C700F090C7B57401F0D202803B8E828F83CA
:20041B00E0FEBE822190C7ECE0FF530780BF800B90C7B6E0FF90C700F0801490C7C6E0FF79
:20043B0090C700F0800990C700E4F090C701F090C7B57402F0D20230020790C7B47402F06E
:08045B002290C7B47401F022E5
:040FD7000078E8C7EF
:200F840012010200FFFFFF40151902010100010200010902200001010080640904000002A5
:200FA400FF00FF000705810240000007050102400000040900524653746F726D005265732D
:0F0FC4006561726368204669726D7761726500BE
:060FDB00B60FB90FC10FB3
:20046300AFF0AE83E582908014F0EEA3F0EFA3F0908014E0FDA3E0FEA3E0FF908013E0FC28
:200483007A007B008C007900C3EA98EB648089F063F08095F05033EC148A00C398240EF5EB
:2004A30012E43480F513C004EA2DF8EB3EF98F04888289838CF0120F64F8851282851383BC
:2004C300F00ABA00010BD00480BAEC24FA50047F0580028C0790800CEFF0E4A3F090800BC7
:2004E30004F0C29090802E7401F075820212074B90800CE0FEA3E0FF4E70119080197402C9
:20050300F090807E75F00012057B8043BE0132BF002F90800EE0908017F090800EE0FD535E
:200523000580BD80047DAA80027D55908018EDF09080197402F090801775F00012057B8045
:200543000E908019EEF090800E75F00012057B90801DE4F090801EF07582001205F290803F
:20056300207408F09080217420F075820312061FD29090C7B7E4F022AFF0AE83E582908059
:200583001AF0EEA3F0EFA3F090802E7401F075820212074B908019E0FF24FE90802EF0757E
:2005A3008203C00712074BD00790801AE0FCA3E0FDA3E0FE908024ECF0EDA3F0EEA3F09009
:2005C3008027EFF0758230C00712065ED00790801AE0FCA3E0FDA3E0FE908024ECF0EDA3B0
:2005E300F0EEA3F0908027EFF075822A02065EE58290801FF0E090802EF075821D12074BDE
:2006030090801DE090802EF075821C12074B90801EE090802EF075820102074BE582908026
:2006230022F0E090802EF075820012074B908020E090802EF075820612074B908021E090FC
:20064300802EF075821102074BE582908023F0E0F5E5C2C030C0FD85E58222E5829080283D
:20066300F0C291908028E0F58212064C908024E0FDA3E0FEA3E0FF908027E0FC7A007B0025
:200683008C007900C3EA98EB648089F063F08095F05039C004EA2DF8EB3EF98F04888289C9
:2006A300838CF0120F64F582C007C006C005C004C003C00212064CD002D003D004D005D01F
:2006C30006D0070ABA00010BD00480B4D29122E58290802DF0C29190802DE0F58212064CFE
:2006E300908029E0FDA3E0FEA3E0FF90802CE0FC7A007B008C007900C3EA98EB648089F03F
:2007030063F08095F0503EC004EA2DF514EB3EF5158F167582FFC007C006C005C003C00267
:2007230012064CAC82D002D003D005D006D0078514828515838516F0EC120F310ABA000137
:200743000BD00480AFD29122E58290802FF0E0FF430720908024742EF07480A3F0E4A3F060
:2007630090802704F08F8202065EAF83E582908032F0EFA3F0908030E0FE7F00908032E0C8
:20078300FCA3E0FD908032EF6CF0EE6DA3F0908031E0FF8F061FEE603C908032E0FDA3E05F
:2007A300FE7B0074805EFCBB001ABC80178D03EECB25E0CB33FC90803274216BF074106CDD
:2007C300A3F080CFEECD25E0CD33FE908032EDF0EEA3F080BE908032E0FEA3E08E82F5836D
:2007E30022E582908037F0E0FFBFFF0E90807CE0F8A3E0F5838882020069BF0B10AE947427
:20080300EF5EF59443801090C7B7E4F022BF0968C290908034E0FCA3E0FDA3E0FE8C828DEA
:20082300838EF0120F6490802EF0758205C006C005C00412074BD004D005D00690C7B77451
:2008430001F08C828D838EF0120F6490C680F0908024E4F0A3F0A3F0908027F07582E2127D
:20086300065E908024E4F0A3F0A3F0908027F07582E112065ED29022BF0A1F9080297480D5
:20088300F074C6A3F0E4A3F090802C04F07582051206D290C7B77401F022BF062A90803443
:2008A300E0FCA3E0FDA3E0FE74012CF9E43DFA8E038C828D838EF0120F64908013F08982D3
:2008C3008A838BF0020463BF12028003020C489080297438F07480A3F0E4A3F090802C0465
:2008E300F07582171206D2908038E0FE30E003020C3B90800BE070699080297438F07480EE
:20090300A3F0E4A3F090802C04F07582601206D2908038E0FE24DF40299080297481F07435
:20092300C6A3F0E4A3F090802CEEF07582611206D290C680E4F0908038E0FE0E90C7B7EEAE
:20094300F02290C7B77401F090C68074FFF0908024E4F0A3F0A3F0908027F07582E20206A0
:200963005E7D007E0090800CE0FBA3E0FCC3ED9BEE64808CF063F08095F050278B028D0122
:20098300EAC39914243DF9E43480FAED240EF582EE3480F583E0F889828A83F00DBD00C5EF
:2009A3000E80C2EB243DFBEC3480FC908029EBF0ECA3F0E4A3F090802C7420F075826112CD
:2009C30006D2E4F519F51A7401B51906E4B51A028002805C7B1F7C00C3E49B74808CF063B4
:2009E300F08095F0502CEB243DF9EC3480FA8B00E814243DF582E43480F583E0035480F886
:200A030089828A83E0C313FE420089828A83E8F08015EB243DF9EC3480FA89828A83E0C3A6
:200A230013F889828A83F01BBBFF011CEC30E7A8908042E00303543FFC90800CE0FAA3E0C3
:200A4300FB74172AFAE43BFB8C007900C3EA98EB648089F063F08095F05003020C23C000A1
:200A6300C00174062C243DF582E43480F583E025E0FA7B0074072C243DF582E43480F5833B
:200A8300E0F8E4C825E0C833F9E84203E942028A178B1890803BE517F0E518A3F074082CC9
:200AA300243DF582E43480F583E0FBD001D00030E70C90803BE517F074014518A3F0908000
:200AC3003974FFF0A3F0740628FAE439FBE4F517F518C3E5179AE51864808BF063F0809516
:200AE300F05059C000C001908039E0F8A3E0F9E517243DF582E5183480F583E0908030F02F
:200B03009080317408F088828983C004C003C002C001C00012076DE5828583F0D000D001BF
:200B2300D002D003D004908039F0E5F0A3F00517E4B517020518D001D0008096908039E0CD
:200B4300FDA3E0FE74062C243DF582E43480F583E0FB90803074805BF09080317401F08DF9
:200B6300828E83C004C001C00012076DAD82AE83D000D001D004ED8E05FE90803BE0FAA3F9
:200B8300E0FBEDB50206EEB503028003020C23908065743DF07480A3F0E4A3F09080687471
:200BA30005F0E4A3F090C68075F000C004C001C000120EBDD000D001D004740328FDE4393B
:200BC300FE7A007B00C3EA9DEB64808EF063F08095F05044C005C0068A017405292480F848
:200BE300E434C6FE740629243DF582E43480F583E025E0FD740729243DF582E43480F5831D
:200C0300E0235401F9420588828E83EDF00ABA00010BD006D00580AD74052C90C7B7F022D4
:200C23000519E4B51902051AC3E5199402E51A6480948050030209CA90C7B77401F090C681
:200C43008074FFF022BF05028003020D0490800BE4F0908034E0FCA3E0FDA3E0FE8C828D85
:200C6300838EF0120F64FB24FA500B8C828D838EF07405120F318C828D838EF0120F64FBF4
:200C8300BB0200500B8C828D838EF07402120F31C29074012CF9E43DFA8E038C828D838E91
:200CA300F0120F64908019F089828A838BF012057B90801D7401F090801EE4F075820612DB
:200CC30005F29080207408F0908021E4F075820F12061FD290908024E4F0A3F0A3F090809C
:200CE30027F07582E212065E908024E4F0A3F0A3F0908027F07582E112065E90C7B7E4F006
:200D030022BF0402800122908034E0FDA3E0FEA3E0FF8D828E838FF0120F64FC24DF500BA4
:200D23008D828E838FF07420120F318D828E838FF0120F64FCBC0100500B8D828E838FF054
:200D43007401120F31C29074012DFAE43EFB8F048A828B838CF0120F64FA8AF005F0740132
:200D6300800225E0D5F0FBFA74022DF9E43EFB8F0489828B838CF0120F6490802E4AF075DC
:200D83008204C007C006C00512074BD005D006D007908024E4F0A3F0A3F0908027F0758246
:200DA300E1C007C006C00512065ED005D006D007908024E4F0A3F0A3F0908027F07582E2D7
:200DC300C007C006C00512065E90802E7470F075820712074B90802E740EF0758200120714
:200DE3004B90802E7407F075821D12074B90802E7401F075820112074BD005D006D007748F
:200E0300032DFAE43EFB8F048D828E838FF0120F64FD908024EAF0EBA3F0ECA3F090802792
:200E2300EDF07582A012065ED2907E197F00000000001EBEFF011FEE4F70F3C290C2917598
:200E4300E5FFC2C030C0FDD291741055E5FFBF100790C680E4F0800E742055E5FFBF20DD85
:200E630090C6807401F090802E7406F075821D12074B90802EE4F075820112074B90802E68
:120E8300740FF075820012074BD29090C7B77401F02298
:040FE1000078AA00EA
:06009A00E478FFF6D8FD3A
:200E9500AC82AD83908063E0FEA3E0FFBE000360121F0F908062E08C828D83120F31A3DE68
:080EB500FADFF88C828D832224
:200EBD00AFF0AE83E58290806AF0EEA3F0EFA3F090806AE0F51BA3E0F51CA3E0F51DAA1B19
:200EDD00AB1CAC1D908065E0F8A3E0F9A3E0FF908068E0F51EA3E0F51FAD1EAE1F151E74D9
:200EFD00FFB51E02151FED4E6020888289838FF0120F64FEA3A882A9838A828B838CF0EE7D
:140F1D00120F31A3AA82AB8380CF851B82851C83851DF02228
:200078007912E94400601B7A01900FD3786E75A080E493F2A308B8000205A0D9F4DAF2754C
:02009800A0FFC7
:1B0F310020F71130F6138883A88220F509F6A8837583002280FEF280F5F022BF
:2000A0007800E84400600A790075A080E4F309D8FC786EE84400600C7901908000E4F0A3F1
:0400C000D8FCD9FA95
:02006900E4733E
:180F4C00AA82AB83120F646003A380F8C3E5829AF582E5839BF5832258
:0D006B00758121120F80E58260030200669E
:1C0F640020F71430F6148883A88220F507E6A88375830022E280F7E49322E0229C
:040F80007582002254
:00000001FF
